{
  "_format": "hh-sol-artifact-1",
  "contractName": "Lumen",
  "sourceName": "contracts/Lumen.sol",
  "abi": [
    {
      "inputs": [],
      "stateMutability": "nonpayable",
      "type": "constructor"
    },
    {
      "anonymous": false,
      "inputs": [
        {
          "indexed": true,
          "internalType": "address",
          "name": "_owner",
          "type": "address"
        },
        {
          "indexed": true,
          "internalType": "address",
          "name": "_spender",
          "type": "address"
        },
        {
          "indexed": false,
          "internalType": "uint256",
          "name": "_value",
          "type": "uint256"
        }
      ],
      "name": "Approval",
      "type": "event"
    },
    {
      "anonymous": false,
      "inputs": [
        {
          "indexed": true,
          "internalType": "address",
          "name": "_from",
          "type": "address"
        },
        {
          "indexed": true,
          "internalType": "address",
          "name": "_to",
          "type": "address"
        },
        {
          "indexed": false,
          "internalType": "uint256",
          "name": "_value",
          "type": "uint256"
        }
      ],
      "name": "Transfer",
      "type": "event"
    },
    {
      "inputs": [
        {
          "internalType": "address",
          "name": "",
          "type": "address"
        },
        {
          "internalType": "address",
          "name": "",
          "type": "address"
        }
      ],
      "name": "_allowance",
      "outputs": [
        {
          "internalType": "uint256",
          "name": "",
          "type": "uint256"
        }
      ],
      "stateMutability": "view",
      "type": "function"
    },
    {
      "inputs": [
        {
          "internalType": "address",
          "name": "",
          "type": "address"
        }
      ],
      "name": "_balanceOf",
      "outputs": [
        {
          "internalType": "uint256",
          "name": "",
          "type": "uint256"
        }
      ],
      "stateMutability": "view",
      "type": "function"
    },
    {
      "inputs": [
        {
          "internalType": "address",
          "name": "_owner",
          "type": "address"
        },
        {
          "internalType": "address",
          "name": "_spender",
          "type": "address"
        }
      ],
      "name": "allowance",
      "outputs": [
        {
          "internalType": "uint256",
          "name": "",
          "type": "uint256"
        }
      ],
      "stateMutability": "view",
      "type": "function"
    },
    {
      "inputs": [
        {
          "internalType": "address",
          "name": "_spender",
          "type": "address"
        },
        {
          "internalType": "uint256",
          "name": "_value",
          "type": "uint256"
        }
      ],
      "name": "approve",
      "outputs": [
        {
          "internalType": "bool",
          "name": "",
          "type": "bool"
        }
      ],
      "stateMutability": "nonpayable",
      "type": "function"
    },
    {
      "inputs": [
        {
          "internalType": "address",
          "name": "_owner",
          "type": "address"
        }
      ],
      "name": "balanceOf",
      "outputs": [
        {
          "internalType": "uint256",
          "name": "",
          "type": "uint256"
        }
      ],
      "stateMutability": "view",
      "type": "function"
    },
    {
      "inputs": [],
      "name": "decimals",
      "outputs": [
        {
          "internalType": "uint8",
          "name": "",
          "type": "uint8"
        }
      ],
      "stateMutability": "view",
      "type": "function"
    },
    {
      "inputs": [],
      "name": "name",
      "outputs": [
        {
          "internalType": "string",
          "name": "",
          "type": "string"
        }
      ],
      "stateMutability": "view",
      "type": "function"
    },
    {
      "inputs": [],
      "name": "symbol",
      "outputs": [
        {
          "internalType": "string",
          "name": "",
          "type": "string"
        }
      ],
      "stateMutability": "view",
      "type": "function"
    },
    {
      "inputs": [],
      "name": "totalSupply",
      "outputs": [
        {
          "internalType": "uint256",
          "name": "",
          "type": "uint256"
        }
      ],
      "stateMutability": "view",
      "type": "function"
    },
    {
      "inputs": [
        {
          "internalType": "address",
          "name": "_to",
          "type": "address"
        },
        {
          "internalType": "uint256",
          "name": "_value",
          "type": "uint256"
        }
      ],
      "name": "transfer",
      "outputs": [
        {
          "internalType": "bool",
          "name": "",
          "type": "bool"
        }
      ],
      "stateMutability": "nonpayable",
      "type": "function"
    },
    {
      "inputs": [
        {
          "internalType": "address",
          "name": "_from",
          "type": "address"
        },
        {
          "internalType": "address",
          "name": "_to",
          "type": "address"
        },
        {
          "internalType": "uint256",
          "name": "_value",
          "type": "uint256"
        }
      ],
      "name": "transferFrom",
      "outputs": [
        {
          "internalType": "bool",
          "name": "",
          "type": "bool"
        }
      ],
      "stateMutability": "nonpayable",
      "type": "function"
    }
  ],
  "bytecode": "0x60806040526040518060400160405280600581526020017f4c756d656e00000000000000000000000000000000000000000000000000000081525060009081610048919061035f565b506040518060400160405280600381526020017f4c4d4e00000000000000000000000000000000000000000000000000000000008152506001908161008d919061035f565b506012600260006101000a81548160ff021916908360ff160217905550683635c9adc5dea000006003553480156100c357600080fd5b50600354600460003373ffffffffffffffffffffffffffffffffffffffff1673ffffffffffffffffffffffffffffffffffffffff16815260200190815260200160002081905550610431565b600081519050919050565b7f4e487b7100000000000000000000000000000000000000000000000000000000600052604160045260246000fd5b7f4e487b7100000000000000000000000000000000000000000000000000000000600052602260045260246000fd5b6000600282049050600182168061019057607f821691505b6020821081036101a3576101a2610149565b5b50919050565b60008190508160005260206000209050919050565b60006020601f8301049050919050565b600082821b905092915050565b60006008830261020b7fffffffffffffffffffffffffffffffffffffffffffffffffffffffffffffffff826101ce565b61021586836101ce565b95508019841693508086168417925050509392505050565b6000819050919050565b6000819050919050565b600061025c6102576102528461022d565b610237565b61022d565b9050919050565b6000819050919050565b61027683610241565b61028a61028282610263565b8484546101db565b825550505050565b600090565b61029f610292565b6102aa81848461026d565b505050565b5b818110156102ce576102c3600082610297565b6001810190506102b0565b5050565b601f821115610313576102e4816101a9565b6102ed846101be565b810160208510156102fc578190505b610310610308856101be565b8301826102af565b50505b505050565b600082821c905092915050565b600061033660001984600802610318565b1980831691505092915050565b600061034f8383610325565b9150826002028217905092915050565b6103688261010f565b67ffffffffffffffff8111156103815761038061011a565b5b61038b8254610178565b6103968282856102d2565b600060209050601f8311600181146103c957600084156103b7578287015190505b6103c18582610343565b865550610429565b601f1984166103d7866101a9565b60005b828110156103ff578489015182556001820191506020850194506020810190506103da565b8683101561041c5784890151610418601f891682610325565b8355505b6001600288020188555050505b505050505050565b610e41806104406000396000f3fe608060405234801561001057600080fd5b50600436106100a95760003560e01c806370a082311161007157806370a082311461016857806395d89b4114610198578063a9059cbb146101b6578063cca3e832146101e6578063dd336c1214610216578063dd62ed3e14610246576100a9565b806306fdde03146100ae578063095ea7b3146100cc57806318160ddd146100fc57806323b872dd1461011a578063313ce5671461014a575b600080fd5b6100b6610276565b6040516100c391906109ea565b60405180910390f35b6100e660048036038101906100e19190610aa5565b610304565b6040516100f39190610b00565b60405180910390f35b6101046103f6565b6040516101119190610b2a565b60405180910390f35b610134600480360381019061012f9190610b45565b6103fc565b6040516101419190610b00565b60405180910390f35b610152610644565b60405161015f9190610bb4565b60405180910390f35b610182600480360381019061017d9190610bcf565b610657565b60405161018f9190610b2a565b60405180910390f35b6101a06106a0565b6040516101ad91906109ea565b60405180910390f35b6101d060048036038101906101cb9190610aa5565b61072e565b6040516101dd9190610b00565b60405180910390f35b61020060048036038101906101fb9190610bcf565b610896565b60405161020d9190610b2a565b60405180910390f35b610230600480360381019061022b9190610bfc565b6108ae565b60405161023d9190610b2a565b60405180910390f35b610260600480360381019061025b9190610bfc565b6108d3565b60405161026d9190610b2a565b60405180910390f35b6000805461028390610c6b565b80601f01602080910402602001604051908101604052809291908181526020018280546102af90610c6b565b80156102fc5780601f106102d1576101008083540402835291602001916102fc565b820191906000526020600020905b8154815290600101906020018083116102df57829003601f168201915b505050505081565b600081600560003373ffffffffffffffffffffffffffffffffffffffff1673ffffffffffffffffffffffffffffffffffffffff16815260200190815260200160002060008573ffffffffffffffffffffffffffffffffffffffff1673ffffffffffffffffffffffffffffffffffffffff168152602001908152602001600020819055508273ffffffffffffffffffffffffffffffffffffffff163373ffffffffffffffffffffffffffffffffffffffff167f8c5be1e5ebec7d5bd14f71427d1e84f3dd0314c0f7b2291e5b200ac8c7c3b925846040516103e49190610b2a565b60405180910390a36001905092915050565b60035481565b60008161040885610657565b1015610449576040517f08c379a000000000000000000000000000000000000000000000000000000000815260040161044090610ce8565b60405180910390fd5b8161045485336108d3565b1015610495576040517f08c379a000000000000000000000000000000000000000000000000000000000815260040161048c90610d54565b60405180910390fd5b81600460008673ffffffffffffffffffffffffffffffffffffffff1673ffffffffffffffffffffffffffffffffffffffff16815260200190815260200160002060008282546104e49190610da3565b9250508190555081600560008673ffffffffffffffffffffffffffffffffffffffff1673ffffffffffffffffffffffffffffffffffffffff16815260200190815260200160002060003373ffffffffffffffffffffffffffffffffffffffff1673ffffffffffffffffffffffffffffffffffffffff16815260200190815260200160002060008282546105779190610da3565b9250508190555081600460008573ffffffffffffffffffffffffffffffffffffffff1673ffffffffffffffffffffffffffffffffffffffff16815260200190815260200160002060008282546105cd9190610dd7565b925050819055508273ffffffffffffffffffffffffffffffffffffffff168473ffffffffffffffffffffffffffffffffffffffff167fddf252ad1be2c89b69c2b068fc378daa952ba7f163c4a11628f55a4df523b3ef846040516106319190610b2a565b60405180910390a3600190509392505050565b600260009054906101000a900460ff1681565b6000600460008373ffffffffffffffffffffffffffffffffffffffff1673ffffffffffffffffffffffffffffffffffffffff168152602001908152602001600020549050919050565b600180546106ad90610c6b565b80601f01602080910402602001604051908101604052809291908181526020018280546106d990610c6b565b80156107265780601f106106fb57610100808354040283529160200191610726565b820191906000526020600020905b81548152906001019060200180831161070957829003601f168201915b505050505081565b60008161073a33610657565b101561077b576040517f08c379a000000000000000000000000000000000000000000000000000000000815260040161077290610ce8565b60405180910390fd5b81600460003373ffffffffffffffffffffffffffffffffffffffff1673ffffffffffffffffffffffffffffffffffffffff16815260200190815260200160002060008282546107ca9190610da3565b9250508190555081600460008573ffffffffffffffffffffffffffffffffffffffff1673ffffffffffffffffffffffffffffffffffffffff16815260200190815260200160002060008282546108209190610dd7565b925050819055508273ffffffffffffffffffffffffffffffffffffffff163373ffffffffffffffffffffffffffffffffffffffff167fddf252ad1be2c89b69c2b068fc378daa952ba7f163c4a11628f55a4df523b3ef846040516108849190610b2a565b60405180910390a36001905092915050565b60046020528060005260406000206000915090505481565b6005602052816000526040600020602052806000526040600020600091509150505481565b6000600560008473ffffffffffffffffffffffffffffffffffffffff1673ffffffffffffffffffffffffffffffffffffffff16815260200190815260200160002060008373ffffffffffffffffffffffffffffffffffffffff1673ffffffffffffffffffffffffffffffffffffffff16815260200190815260200160002054905092915050565b600081519050919050565b600082825260208201905092915050565b60005b83811015610994578082015181840152602081019050610979565b60008484015250505050565b6000601f19601f8301169050919050565b60006109bc8261095a565b6109c68185610965565b93506109d6818560208601610976565b6109df816109a0565b840191505092915050565b60006020820190508181036000830152610a0481846109b1565b905092915050565b600080fd5b600073ffffffffffffffffffffffffffffffffffffffff82169050919050565b6000610a3c82610a11565b9050919050565b610a4c81610a31565b8114610a5757600080fd5b50565b600081359050610a6981610a43565b92915050565b6000819050919050565b610a8281610a6f565b8114610a8d57600080fd5b50565b600081359050610a9f81610a79565b92915050565b60008060408385031215610abc57610abb610a0c565b5b6000610aca85828601610a5a565b9250506020610adb85828601610a90565b9150509250929050565b60008115159050919050565b610afa81610ae5565b82525050565b6000602082019050610b156000830184610af1565b92915050565b610b2481610a6f565b82525050565b6000602082019050610b3f6000830184610b1b565b92915050565b600080600060608486031215610b5e57610b5d610a0c565b5b6000610b6c86828701610a5a565b9350506020610b7d86828701610a5a565b9250506040610b8e86828701610a90565b9150509250925092565b600060ff82169050919050565b610bae81610b98565b82525050565b6000602082019050610bc96000830184610ba5565b92915050565b600060208284031215610be557610be4610a0c565b5b6000610bf384828501610a5a565b91505092915050565b60008060408385031215610c1357610c12610a0c565b5b6000610c2185828601610a5a565b9250506020610c3285828601610a5a565b9150509250929050565b7f4e487b7100000000000000000000000000000000000000000000000000000000600052602260045260246000fd5b60006002820490506001821680610c8357607f821691505b602082108103610c9657610c95610c3c565b5b50919050565b7f496e73756666696369656e742062616c616e6365000000000000000000000000600082015250565b6000610cd2601483610965565b9150610cdd82610c9c565b602082019050919050565b60006020820190508181036000830152610d0181610cc5565b9050919050565b7f496e73756666696369656e7420616c6c6f77616e636500000000000000000000600082015250565b6000610d3e601683610965565b9150610d4982610d08565b602082019050919050565b60006020820190508181036000830152610d6d81610d31565b9050919050565b7f4e487b7100000000000000000000000000000000000000000000000000000000600052601160045260246000fd5b6000610dae82610a6f565b9150610db983610a6f565b9250828203905081811115610dd157610dd0610d74565b5b92915050565b6000610de282610a6f565b9150610ded83610a6f565b9250828201905080821115610e0557610e04610d74565b5b9291505056fea26469706673582212206c828c950aac42b4c508e734040641578b859e094f31c84f47823f700294993a64736f6c634300081b0033",
  "linkReferences": {},
  "deployedLinkReferences": {}
}